:100000000C9434000C9451000C9451000C94510049
:100010000C9451000C9451000C9451000C9451001C
:100020000C9451000C9451000C94EA000C94A20022
:100030000C9451000C94D3000C94C9000C94510002
:100040000C9451000C9451000C9451000C945100EC
:100050000C9451000C9451000C9451000C945100DC
:100060000C9451000C94510011241FBECFEFD8E026
:10007000DEBFCDBF11E0A0E0B1E0E8E3FDE002C0EB
:1000800005900D92A633B107D9F721E0A6E3B1E0C0
:1000900001C01D92A734B207E1F70E9470010C94D1
:1000A0009A060C940000CF93C82F8A3019F48DE083
:1000B0000E945300E0ECF0E0808185FFFDCFC0930B
:1000C000C60080E090E0CF910895E0ECF0E0808100
:1000D0008823ECF78091C60090E008951092C50047
:1000E00087E68093C400E0ECF0E080818D7F808320
:1000F00086E08093C20088E18093C100E1E4F1E0F2
:100100008EE091E09383828380E091E0918380830D
:100110000895E1E8F0E0808181608083109285009D
:1001200010928400E0E8F0E080818064808382E0C7
:1001300080936F0080E590E0909389008093880021
:10014000789408951F920F920FB60F9211248F93F7
:10015000AF93BF93EF93FF931092850010928400AA
:10016000EFE6F0E080818D7F8083A1E8B0E08C91A4
:1001700080648C9380E28083808180837894FF9177
:10018000EF91BF91AF918F910F900FBE0F901F9085
:1001900018951F920F920FB60F9211240F900FBE59
:1001A0000F901F9018951F920F920FB60F92112467
:1001B0008F939F9380913601909137010196909390
:1001C0003701809336019F918F910F900FBE0F9052
:1001D0001F9018951F920F920FB60F9211248F93B4
:1001E0009F93AF93BF93EF93FF938091810086FF1E
:1001F00014C08091860090918700A0E0B0E08093C9
:10020000390190933A01A0933B01B0933C01E1E89E
:10021000F0E080818F7B808316C080918600909172
:100220008700A0E0B0E080933D0190933E01A09351
:100230003F01B0934001E1E8F0E080818064808379
:1002400081E080933801FF91EF91BF91AF919F9131
:100250008F910F900FBE0F901F90189516BC84B50C
:10026000806484BD84B5826084BD8BE387BD82E0F9
:1002700080936E0085B5836085BD089586399105AC
:10028000D4F08C3B21E09207CCF0823E22E0920732
:10029000C4F0883024E09207BCF08E3225E092074B
:1002A000B4F0843526E09207ACF08A379740ACF082
:1002B0008FEE90E0089587E790E008958FE790E053
:1002C00008958EE890E008958FE990E0089583EB1B
:1002D00090E008958EEB90E0089585ED90E008950C
:1002E000CF93DF93CDB7DEB7C054D1090FB6F894E2
:1002F000DEBF0FBECDBF0E946E0082E084B990E4E5
:100300009AB985B90E942E010E94890088248A9496
:10031000982CA12CB12C0F2EFCE1CF2EF1E0DF2E7A
:10032000F02D6894772476F8CE0101967C0100E3E5
:1003300011E0809138018823E1F3A0913601B0915A
:1003400037011097B9F480913D0190913E01A09141
:100350003F01B09140012091390130913A01409123
:100360003B0150913C01BC01CD01621B730B840B1E
:10037000950B28C04091390150913A0160913B01A1
:1003800070913C0114012501241A350A460A570AC6
:100390002FEF3FEF0E944603AB01BC01420D531DFE
:1003A000641D751D80913D0190913E01A0913F011A
:1003B000B09140011A012B01280E391E4A1E5B1E06
:1003C000C201B1010E944D0220E030E040E85DE34F
:1003D0000E94B1020E941502562E672E9F938F93A2
:1003E0007F936F93DF92CF921F927F92FF92EF9253
:1003F0000E94A203C7010E947203852D962D0E94C0
:100400003E0187BD87B51F928F931F930F930E9464
:100410005C031092370110923601109238010FB62A
:10042000F894DEBF0FBECDBF84CF0E941C0268943B
:10043000B1110C94AB0208950E94900288F09F576E
:1004400098F0B92F9927B751B0F0E1F0660F771FF8
:10045000881F991F1AF0BA95C9F714C0B13091F0EE
:100460000E94AA02B1E008950C94AA02672F782F87
:100470008827B85F39F0B93FCCF3869577956795B3
:10048000B395D9F73EF490958095709561957F4F1F
:100490008F4F9F4F0895E89409C097FB3EF49095C5
:1004A0008095709561957F4F8F4F9F4F9923A9F04D
:1004B000F92F96E9BB279395F695879577956795DC
:1004C000B795F111F8CFFAF4BB0F11F460FF1BC020
:1004D0006F5F7F4F8F4F9F4F16C0882311F096E9B3
:1004E00011C0772321F09EE8872F762F05C0662361
:1004F00071F096E8862F70E060E02AF09A95660F1A
:10050000771F881FDAF7880F9695879597F90895D2
:1005100057FD9058440F551F59F05F3F71F04795B4
:10052000880F97FB991F61F09F3F79F08795089599
:10053000121613061406551FF2CF4695F1DF08C0B8
:10054000161617061806991FF1CF869571056105D5
:1005500008940895E894BB2766277727CB0197F97D
:1005600008950E94C4020C9435030E94270338F0BA
:100570000E942E0320F0952311F00C941E030C947E
:10058000240311240C94AB020E94880270F3959FFF
:10059000C1F3950F50E0551F629FF001729FBB277A
:1005A000F00DB11D639FAA27F00DB11DAA1F649F16
:1005B0006627B00DA11D661F829F2227B00DA11DC9
:1005C000621F739FB00DA11D621F839FA00D611D4F
:1005D000221F749F3327A00D611D231F849F600D70
:1005E000211D822F762F6A2F11249F5750409AF099
:1005F000F1F088234AF0EE0FFF1FBB1F661F771F25
:10060000881F91505040A9F79E3F510580F00C94EF
:100610001E030C94AB025F3FE4F3983ED4F386953F
:1006200077956795B795F795E7959F5FC1F7FE2B8F
:10063000880F911D9695879597F9089597F99F676B
:1006400080E870E060E008959FEF80EC089500245A
:100650000A941616170618060906089500240A9427
:1006600012161306140605060895092E0394000CAD
:1006700011F4882352F0BB0F40F4BF2B11F460FF3C
:1006800004C06F5F7F4F8F4F9F4F08950E944D03AF
:10069000B7FF0895821B930B0895A29FB001B39FEB
:1006A000C001A39F700D811D1124911DB29F700D7B
:1006B000811D1124911D0895A0E0B0E0E2E6F3E071
:1006C0000C947306AE014B5F5F4FFA01619171911B
:1006D000AF0180914301909144010E94D203E2E076
:1006E0000C948F060F931F93CF93DF93E0914301F8
:1006F000F0914401238121FF1BC08C01D0E0C0E0B8
:10070000F80181918F016091430170914401DB01F7
:100710001896ED91FC911997882331F00995892B52
:1007200079F3DFEFCFEFECCF8AE00995892B19F051
:100730008FEF9FEF02C08D2F9C2FDF91CF911F91E4
:100740000F910895AEE0B0E0E8EAF3E00C94710692
:100750000D891E898F89988D26E02C831A83098341
:1007600097FF02C080E090E801979E838D83AE01E1
:10077000455E5F4F698D7A8DCE0101960E94D2034E
:100780004D815E8157FD0AC02F813885421753077E
:100790000CF49A01F801E20FF31F10822E96E4E0A8
:1007A0000C948D06ABE0B0E0E8EDF3E00C9463064A
:1007B0006C017B018A01FC0117821682838181FF13
:1007C000CCC1CE0101963C01F6019381F70193FD66
:1007D000859193FF81917F01882309F4BAC1853205
:1007E00039F493FD859193FF81917F01853229F43E
:1007F000B60190E00E94C905E7CF912C212C312C45
:10080000FFE1F315D8F08B3279F038F4803279F0CB
:100810008332A1F4232D20611DC08D3261F080331D
:1008200069F4232D216016C0832D8260382EE32DBC
:10083000E4603E2E2AC0F32DF8601DC037FC2DC0A9
:1008400020ED280F2A3040F08E32B9F436FC81C1F9
:10085000232D2064322E19C036FE06C08AE0989EF1
:10086000200D1124922E11C0EAE02E9E200D11249D
:10087000222EF32DF0623F2E08C08C3621F4832DFA
:100880008068382E02C0883641F4F70193FD8591C7
:1008900093FF81917F018111B3CF982F9F7D955454
:1008A000933028F40C5F1F4F9FE399830DC083366C
:1008B00031F0833771F0833509F059C021C0F80158
:1008C000808189830E5F1F4F88248394912C53016C
:1008D00013C02801F2E04F0E511CF801A080B18036
:1008E00036FE03C0692D70E002C06FEF7FEFC501D7
:1008F0000E94BE054C018201F32DFF773F2E16C0EA
:10090000280122E0420E511CF801A080B18036FE81
:1009100003C0692D70E002C06FEF7FEFC5010E9438
:10092000B3054C01F32DF0683F2E820133FC1BC050
:10093000822D90E088169906B0F4B60180E290E02E
:100940000E94C9052A94F4CFF50137FC859137FE42
:1009500081915F01B60190E00E94C90521102A949F
:1009600021E0821A91088114910471F7E8C084365D
:1009700011F0893641F5F80137FE07C060817181B9
:10098000828193810C5F1F4F08C060817181072EA7
:10099000000C880B990B0E5F1F4FF32DFF763F2E37
:1009A00097FF09C090958095709561957F4F8F4F07
:1009B0009F4FF0683F2E2AE030E0A3010E94050619
:1009C000882E861845C0853731F4232D2F7EB22E10
:1009D0002AE030E025C0932D997FB92E8F36C1F0E3
:1009E00018F4883579F0B5C0803719F0883721F0D0
:1009F000B0C0E92FE061BE2EB4FE0DC0FB2DF46047
:100A0000BF2E09C034FE0AC0292F2660B22E06C0B0
:100A100028E030E005C020E130E002C020E132E013
:100A2000F801B7FE07C060817181828193810C5FFC
:100A30001F4F06C06081718180E090E00E5F1F4F04
:100A4000A3010E940506882E8618FB2DFF773F2EF6
:100A500036FE0DC0232D2E7FA22E891458F434FEAD
:100A60000BC032FC09C0832D8E7EA82E05C0B82C89
:100A7000A32C03C0B82C01C0B92CA4FE0FC0FE01EA
:100A8000E80DF11D8081803321F49A2D997EA92EE5
:100A900009C0A2FE06C0B394B39404C08A2D867820
:100AA00009F0B394A3FC11C0A0FE06C0B21488F4F0
:100AB000280C922C9B180EC0B21460F4B60180E290
:100AC00090E00E94C905B394F7CFB21418F42B1824
:100AD00002C0982C212CA4FE10C0B60180E390E047
:100AE0000E94C905A2FE17C0A1FC03C088E790E0E0
:100AF00002C088E590E0B6010CC08A2D867859F0D6
:100B0000A1FE02C08BE201C080E2A7FC8DE2B6012B
:100B100090E00E94C905891438F4B60180E390E0A2
:100B20000E94C9059A94F7CF8A94F301E80DF11D4C
:100B30008081B60190E00E94C9058110F5CF222086
:100B400009F442CEB60180E290E00E94C9052A94E1
:100B5000F6CFF6018681978102C08FEF9FEF2B962B
:100B6000E2E10C947F06FC01059061507040011099
:100B7000D8F7809590958E0F9F1F0895FC016150C6
:100B8000704001900110D8F7809590958E0F9F1FAF
:100B900008950F931F93CF93DF93FB01238121FDD2
:100BA00003C08FEF9FEF2CC022FF16C046815781F4
:100BB000248135814217530744F4A081B1819D01FE
:100BC0002F5F3F4F318320838C93268137812F5FA6
:100BD0003F4F3783268314C08B01EC01FB01008457
:100BE000F185E02D0995892BE1F6D80116968D91B6
:100BF0009C911797019617969C938E931697CE010A
:100C0000DF91CF911F910F910895FA01AA27283003
:100C100051F1203181F1E8946F936E7F6E5F7F4FC9
:100C20008F4F9F4FAF4FB1E03ED0B4E03CD0670F45
:100C3000781F891F9A1FA11D680F791F8A1F911D98
:100C4000A11D6A0F711D811D911DA11D20D009F4E8
:100C500068943F912AE0269F11243019305D31932A
:100C6000DEF6CF010895462F4770405D4193B3E013
:100C70000FD0C9F7F6CF462F4F70405D4A3318F0BA
:100C8000495D31FD4052419302D0A9F7EACFB4E06B
:100C9000A6959795879577956795BA95C9F7009723
:100CA0006105710508959B01AC010A2E06945795C4
:100CB000479537952795BA95C9F7620F731F841F1B
:100CC000951FA01D08952F923F924F925F926F92B1
:100CD0007F928F929F92AF92BF92CF92DF92EF92CC
:100CE000FF920F931F93CF93DF93CDB7DEB7CA1B4D
:100CF000DB0B0FB6F894DEBF0FBECDBF09942A8878
:100D0000398848885F846E847D848C849B84AA841F
:100D1000B984C884DF80EE80FD800C811B81AA81AC
:100D2000B981CE0FD11D0FB6F894DEBF0FBECDBF77
:080D3000ED010895F894FFCFD6
:100D38000000000100000000000065000000000045
:100D480000020000000053000000000050756C73A2
:100D58006520776964746820697320256C640A00CB
:060D68002564200A0000D2
:00000001FF
