S01000004C4544426C696E6B2E737265634F
S11300000C9434000C943E000C943E000C943E007E
S11300100C943E000C943E000C943E000C943E0064
S11300200C943E000C943E000C943E000C943E0054
S11300300C943E000C943E000C943E000C943E0044
S11300400C943E000C943E000C943E000C943E0034
S11300500C943E000C943E000C943E000C943E0024
S11300600C943E000C943E0011241FBECFEFD8E048
S1130070DEBFCDBF0E9440000C944E000C940000E3
S113008080E284B915B891E020E283B1892783B96D
S11300908823D9F385B1822785B9F7CFF894FFCFA8
S9030000FC
