:100000000C9434000C943E000C943E000C943E0082
:100010000C943E000C943E000C943E000C943E0068
:100020000C943E000C943E000C943E000C943E0058
:100030000C943E000C943E000C943E000C943E0048
:100040000C943E000C943E000C943E000C943E0038
:100050000C943E000C943E000C943E000C943E0028
:100060000C943E000C943E0011241FBECFEFD8E04C
:10007000DEBFCDBF0E9445000C9451000C940000DF
:1000800085B5846085BD16BC0895569A0E944000CF
:1000900090E486B58E33E8F38BB189278BB916BC13
:0600A000F8CFF894FFCF39
:00000001FF
