:100000000C9434000C943E000C943E000C943E0082
:100010000C943E000C943E000C943E000C943E0068
:100020000C943E000C943E000C943E000C943E0058
:100030000C943E000C943E000C944E000C943E0038
:100040000C943E000C943E000C943E000C943E0038
:100050000C943E000C943E000C943E000C943E0028
:100060000C943E000C943E0011241FBECFEFD8E04C
:10007000DEBFCDBF0E9459000C945F000C940000BD
:1000800016BC84B5806484BD87E487BD82E080931C
:100090006E0085B5846085BD789408951F920F9297
:1000A0000FB60F92112416BC0F900FBE0F901F9029
:1000B000189580E48AB91BB80E944000FFCFF894DD
:0200C000FFCF70
:00000001FF
