:100000000C9434000C9451000C9451000C94510049
:100010000C9451000C9451000C9451000C9451001C
:100020000C9451000C9451000C94E0000C94A2002C
:100030000C9451000C94C9000C9451000C94510084
:100040000C9451000C9451000C9451000C945100EC
:100050000C9451000C9451000C9451000C945100DC
:100060000C9451000C94510011241FBECFEFD8E026
:10007000DEBFCDBF11E0A0E0B1E0E4E5FCE002C0EE
:1000800005900D92A434B107D9F721E0A4E4B1E0C2
:1000900001C01D92A535B207E1F70E9424010C941E
:1000A00028060C940000CF93C82F8A3019F48DE0F5
:1000B0000E945300E0ECF0E0808185FFFDCFC0930B
:1000C000C60080E090E0CF910895E0ECF0E0808100
:1000D0008823ECF78091C60090E008951092C50047
:1000E00087E68093C400E0ECF0E080818D7F808320
:1000F00086E08093C20088E18093C100EFE4F1E0E4
:100100008EE091E09383828380E091E0918380830D
:100110000895E1E8F0E0808181608083109285009D
:1001200010928400E0E8F0E080818064808382E0C7
:1001300080936F0080E590E0909389008093880021
:10014000789408951F920F920FB60F9211248F93F7
:10015000AF93BF93EF93FF931092850010928400AA
:10016000EFE6F0E080818D7F8083A1E8B0E08C91A4
:1001700080648C9380E28083808180837894FF9177
:10018000EF91BF91AF918F910F900FBE0F901F9085
:1001900018951F920F920FB60F9211248F939F9371
:1001A000809144019091450101969093450180937F
:1001B00044019F918F910F900FBE0F901F90189543
:1001C0001F920F920FB60F9211248F939F93AF93AC
:1001D000BF93EF93FF938091810086FF14C08091BD
:1001E000860090918700A0E0B0E080934701909353
:1001F0004801A0934901B0934A01E1E8F0E0808111
:100200008F7B808316C08091860090918700A0E04C
:10021000B0E080934B0190934C01A0934D01B093BB
:100220004E01E1E8F0E080818064808381E080938A
:100230004601FF91EF91BF91AF919F918F910F90E8
:100240000FBE0F901F901895CF93DF93CDB7DEB7F9
:10025000C054D1090FB6F894DEBF0FBECDBF0E94C7
:100260006E008CE191E00E94000382E084B985B9C0
:100270000E94890088248A94982CA12CB12C0F2EDE
:10028000F0E3EF2EF1E0FF2EF02D6894DD24D6F898
:100290008E010F5F1F4F809146018823E1F3A091EB
:1002A0004401B09145011097B9F480914B019091B0
:1002B0004C01A0914D01B0914E01409047015090EA
:1002C00048016090490170904A01BC01CD01641958
:1002D00075098609970928C0409147015091480146
:1002E0006091490170914A0124013501441A550A6F
:1002F000660A770A2FEF3FEF0E94EA02AB01BC01CA
:10030000440D551D661D771D80914B0190914C0148
:10031000A0914D01B0914E012A013B01480E591E9A
:100320006A1E7B1EC301B2010E94F10120E030E091
:1003300040E85DE30E9455020E94B9019F938F93AC
:100340007F936F93FF92EF921F92DF921F930F9311
:100350000E943003C8010E940003109245011092D0
:100360004401109246010FB6F894DEBF0FBECDBF18
:1003700092CF0E94C0016894B1110C944F0208956D
:100380000E94340288F09F5798F0B92F9927B751EF
:10039000B0F0E1F0660F771F881F991F1AF0BA9529
:1003A000C9F714C0B13091F00E944E02B1E0089537
:1003B0000C944E02672F782F8827B85F39F0B93F29
:1003C000CCF3869577956795B395D9F73EF49095DC
:1003D0008095709561957F4F8F4F9F4F0895E8945A
:1003E00009C097FB3EF490958095709561957F4F7D
:1003F0008F4F9F4F9923A9F0F92F96E9BB2793952B
:10040000F695879577956795B795F111F8CFFAF43A
:10041000BB0F11F460FF1BC06F5F7F4F8F4F9F4F6B
:1004200016C0882311F096E911C0772321F09EE8C9
:10043000872F762F05C0662371F096E8862F70E02F
:1004400060E02AF09A95660F771F881FDAF7880F09
:100450009695879597F9089557FD9058440F551F25
:1004600059F05F3F71F04795880F97FB991F61F036
:100470009F3F79F087950895121613061406551FAD
:10048000F2CF4695F1DF08C0161617061806991F19
:10049000F1CF86957105610508940895E894BB270E
:1004A00066277727CB0197F908950E9468020C947C
:1004B000D9020E94CB0238F00E94D20220F095238C
:1004C00011F00C94C2020C94C80211240C944F0237
:1004D0000E942C0270F3959FC1F3950F50E0551FB9
:1004E000629FF001729FBB27F00DB11D639FAA2789
:1004F000F00DB11DAA1F649F6627B00DA11D661FD8
:10050000829F2227B00DA11D621F739FB00DA11DF8
:10051000621F839FA00D611D221F749F3327A00DB2
:10052000611D231F849F600D211D822F762F6A2F4E
:1005300011249F5750409AF0F1F088234AF0EE0FB3
:10054000FF1FBB1F661F771F881F91505040A9F7E0
:100550009E3F510580F00C94C2020C944F025F3F05
:10056000E4F3983ED4F3869577956795B795F7951C
:10057000E7959F5FC1F7FE2B880F911D9695879594
:1005800097F9089597F99F6780E870E060E0089513
:100590009FEF80EC089500240A941616170618069B
:1005A0000906089500240A94121613061406050677
:1005B0000895092E0394000C11F4882352F0BB0F08
:1005C00040F4BF2B11F460FF04C06F5F7F4F8F4F6B
:1005D0009F4F08950E94F102B7FF0895821B930B6D
:1005E0000895A29FB001B39FC001A39F700D811D0C
:1005F0001124911DB29F700D811D1124911D08952C
:100600000F931F93CF93DF93E0915101F09152012B
:10061000238121FF1BC08C01D0E0C0E0F801819153
:100620008F016091510170915201DB011896ED919B
:10063000FC911997882331F00995892B79F3DFEF25
:10064000CFEFECCF8AE00995892B19F08FEF9FEF60
:1006500002C08D2F9C2FDF91CF911F910F91089594
:10066000AEE0B0E0E6E3F3E00C94FF050D891E89EF
:100670008F89988D26E02C831A83098397FF02C007
:1006800080E090E801979E838D83AE01455E5F4FC9
:10069000698D7A8DCE0101960E9460034D815E8145
:1006A00057FD0AC02F813885421753070CF49A0171
:1006B000F801E20FF31F10822E96E4E00C941B0663
:1006C000ABE0B0E0E6E6F3E00C94F1056C017B01F1
:1006D0008A01FC0117821682838181FFCCC1CE0181
:1006E00001963C01F6019381F70193FD859193FFFB
:1006F00081917F01882309F4BAC1853239F493FDD1
:10070000859193FF81917F01853229F4B60190E0B4
:100710000E945705E7CF912C212C312CFFE1F315D6
:10072000D8F08B3279F038F4803279F08332A1F44A
:10073000232D20611DC08D3261F0803369F4232D9B
:10074000216016C0832D8260382EE32DE4603E2E9A
:100750002AC0F32DF8601DC037FC2DC020ED280FF6
:100760002A3040F08E32B9F436FC81C1232D20644A
:10077000322E19C036FE06C08AE0989E200D112444
:10078000922E11C0EAE02E9E200D1124222EF32D70
:10079000F0623F2E08C08C3621F4832D8068382EFD
:1007A00002C0883641F4F70193FD859193FF819152
:1007B0007F018111B3CF982F9F7D9554933028F4FA
:1007C0000C5F1F4F9FE399830DC0833631F0833751
:1007D00071F0833509F059C021C0F8018081898307
:1007E0000E5F1F4F88248394912C530113C028015E
:1007F000F2E04F0E511CF801A080B18036FE03C01C
:10080000692D70E002C06FEF7FEFC5010E944C05BB
:100810004C018201F32DFF773F2E16C0280122E004
:10082000420E511CF801A080B18036FE03C0692D34
:1008300070E002C06FEF7FEFC5010E9441054C01DF
:10084000F32DF0683F2E820133FC1BC0822D90E017
:1008500088169906B0F4B60180E290E00E94570530
:100860002A94F4CFF50137FC859137FE81915F0121
:10087000B60190E00E94570521102A9421E0821AC7
:1008800091088114910471F7E8C0843611F089361B
:1008900041F5F80137FE07C0608171818281938143
:1008A0000C5F1F4F08C060817181072E000C880B00
:1008B000990B0E5F1F4FF32DFF763F2E97FF09C058
:1008C00090958095709561957F4F8F4F9F4FF06801
:1008D0003F2E2AE030E0A3010E949305882E86185F
:1008E00045C0853731F4232D2F7EB22E2AE030E02B
:1008F00025C0932D997FB92E8F36C1F018F4883515
:1009000079F0B5C0803719F0883721F0B0C0E92FF1
:10091000E061BE2EB4FE0DC0FB2DF460BF2E09C0F9
:1009200034FE0AC0292F2660B22E06C028E030E02F
:1009300005C020E130E002C020E132E0F801B7FE5E
:1009400007C060817181828193810C5F1F4F06C057
:100950006081718180E090E00E5F1F4FA3010E94D3
:100960009305882E8618FB2DFF773F2E36FE0DC08F
:10097000232D2E7FA22E891458F434FE0BC032FC96
:1009800009C0832D8E7EA82E05C0B82CA32C03C0D1
:10099000B82C01C0B92CA4FE0FC0FE01E80DF11D5A
:1009A0008081803321F49A2D997EA92E09C0A2FE60
:1009B00006C0B394B39404C08A2D867809F0B3942A
:1009C000A3FC11C0A0FE06C0B21488F4280C922C1F
:1009D0009B180EC0B21460F4B60180E290E00E9451
:1009E0005705B394F7CFB21418F42B1802C0982C03
:1009F000212CA4FE10C0B60180E390E00E945705B0
:100A0000A2FE17C0A1FC03C088E790E002C088E501
:100A100090E0B6010CC08A2D867859F0A1FE02C084
:100A20008BE201C080E2A7FC8DE2B60190E00E945B
:100A30005705891438F4B60180E390E00E94570509
:100A40009A94F7CF8A94F301E80DF11D8081B601E5
:100A500090E00E9457058110F5CF222009F442CE84
:100A6000B60180E290E00E9457052A94F6CFF60185
:100A70008681978102C08FEF9FEF2B96E2E10C9465
:100A80000D06FC010590615070400110D8F780956B
:100A900090958E0F9F1F0895FC016150704001904A
:100AA0000110D8F7809590958E0F9F1F08950F9392
:100AB0001F93CF93DF93FB01238121FD03C08FEFB1
:100AC0009FEF2CC022FF16C04681578124813581BB
:100AD0004217530744F4A081B1819D012F5F3F4F1E
:100AE000318320838C93268137812F5F3F4F37835B
:100AF000268314C08B01EC01FB010084F185E02DFD
:100B00000995892BE1F6D80116968D919C9117973E
:100B1000019617969C938E931697CE01DF91CF91F5
:100B20001F910F910895FA01AA27283051F1203121
:100B300081F1E8946F936E7F6E5F7F4F8F4F9F4F71
:100B4000AF4FB1E03ED0B4E03CD0670F781F891FB3
:100B50009A1FA11D680F791F8A1F911DA11D6A0F81
:100B6000711D811D911DA11D20D009F468943F9134
:100B70002AE0269F11243019305D3193DEF6CF0133
:100B80000895462F4770405D4193B3E00FD0C9F7F9
:100B9000F6CF462F4F70405D4A3318F0495D31FD66
:100BA0004052419302D0A9F7EACFB4E0A6959795B9
:100BB000879577956795BA95C9F70097610571058F
:100BC00008959B01AC010A2E0694579547953795D9
:100BD0002795BA95C9F7620F731F841F951FA01D33
:100BE00008952F923F924F925F926F927F928F92D1
:100BF0009F92AF92BF92CF92DF92EF92FF920F93AC
:100C00001F93CF93DF93CDB7DEB7CA1BDB0B0FB6B5
:100C1000F894DEBF0FBECDBF09942A883988488872
:100C20005F846E847D848C849B84AA84B984C88408
:100C3000DF80EE80FD800C811B81AA81B981CE0FFF
:100C4000D11D0FB6F894DEBF0FBECDBFED010895E4
:040C5000F894FFCF46
:100C5400000000010000000000006500000000002A
:100C6400000200000000530000000000496E697497
:100C740069616C697A696E672073797374656D0054
:100C840050756C73652077696474682069732025D6
:040C94006C640A0082
:00000001FF
