S02100004C6564426C696E6B5573696E67496E707574436170747572652E7372656314
S11300000C9434000C943E000C943E000C943E007E
S11300100C943E000C943E000C943E000C943E0064
S11300200C943E000C943E000C9440000C943E0052
S11300300C943E000C943E000C943E000C943E0044
S11300400C943E000C943E000C943E000C943E0034
S11300500C943E000C943E000C943E000C943E0024
S11300600C943E000C943E0011241FBECFEFD8E048
S1130070DEBFCDBF0E945C000C9460000C940000B5
S11300801F920F920FB60F9211248F939F93EF93A9
S1130090FF9395B180E2892785B9E1E8F0E090818A
S11300A080E489278083FF91EF919F918F910F9036
S11300B00FBE0F901F90189580E284B915B8FFCF3A
S10700C0F894FFCFDE
S9030000FC
