S01000004C6162335F332E312E73726563E1
S11300000C9434000C9451000C9451000C94510045
S11300100C9451000C9451000C9451000C94510018
S11300200C9451000C9451000C9451000C94510008
S11300300C9451000C9451000C9451000C945100F8
S11300400C9451000C9451000C9451000C945100E8
S11300500C9451000C9451000C9451000C945100D8
S11300600C9451000C94510011241FBECFEFD8E022
S1130070DEBFCDBF11E0A0E0B1E0E4EFF7E002C0E5
S113008005900D92AE32B107D9F721E0AEE2B1E0AE
S113009001C01D92A433B207E1F70E94AB000C9497
S11300A0F8030C940000CF93C82F8A3019F48DE024
S11300B00E945300E0ECF0E0808185FFFDCFC09307
S11300C0C60080E090E0CF910895E0ECF0E08081FC
S11300D08823ECF78091C60090E008951092C50043
S11300E087E68093C400E0ECF0E080818D7F80831C
S11300F086E08093C20088E18093C100EEE2F1E0E3
S11301008EE091E09383828380E091E09183808309
S11301100895ECE7F0E0808180648083EAE7F0E012
S11301208081876080838081806880830895ECE784
S1130130F0E09081907F8F70892B8083EAE7F0E074
S1130140808180648083808186FDFDCF80917800EA
S1130150909179000895CF93DF93CDB7DEB7C05463
S1130160D1090FB6F894DEBF0FBECDBFECE7F0E0C7
S1130170808180830E9489000E946E000F2EFCE122
S1130180EF2EF1E0FF2EF02D6894DD24D6F88E01D9
S11301900F5F1F4F80E00E9497009F938F93FF9201
S11301A0EF921F92DF921F930F930E9400011F93FF
S11301B00F930E94EA002FEF81EE94E021508040DB
S11301C09040E1F700C000000FB6F894DEBF0FBE08
S11301D0CDBFE0CFA0E0B0E0E0EFF0E00C94D103BD
S11301E0AE014B5F5F4FFA0161917191AF01809154
S11301F03001909131010E943001E2E00C94ED0352
S1130200AEE0B0E0E6E0F1E00C94CF030D891E8986
S11302108F89988D26E02C831A83098397FF02C067
S113022080E090E801979E838D83AE01455E5F4F29
S1130230698D7A8DCE0101960E9430014D815E81D7
S113024057FD0AC02F813885421753070CF49A01D1
S1130250F801E20FF31F10822E96E4E00C94EB03F6
S1130260ABE0B0E0E6E3F1E00C94C1036C017B0188
S11302708A01FC0117821682838181FFCCC1CE01E1
S113028001963C01F6019381F70193FD859193FF5B
S113029081917F01882309F4BAC1853239F493FD31
S11302A0859193FF81917F01853229F4B60190E015
S11302B00E942703E7CF912C212C312CFFE1F31569
S11302C0D8F08B3279F038F4803279F08332A1F4AB
S11302D0232D20611DC08D3261F0803369F4232DFC
S11302E0216016C0832D8260382EE32DE4603E2EFB
S11302F02AC0F32DF8601DC037FC2DC020ED280F57
S11303002A3040F08E32B9F436FC81C1232D2064AA
S1130310322E19C036FE06C08AE0989E200D1124A4
S1130320922E11C0EAE02E9E200D1124222EF32DD0
S1130330F0623F2E08C08C3621F4832D8068382E5D
S113034002C0883641F4F70193FD859193FF8191B2
S11303507F018111B3CF982F9F7D9554933028F45A
S11303600C5F1F4F9FE399830DC0833631F08337B1
S113037071F0833509F059C021C0F8018081898367
S11303800E5F1F4F88248394912C530113C02801BE
S1130390F2E04F0E511CF801A080B18036FE03C07C
S11303A0692D70E002C06FEF7FEFC5010E941C034E
S11303B04C018201F32DFF773F2E16C0280122E065
S11303C0420E511CF801A080B18036FE03C0692D95
S11303D070E002C06FEF7FEFC5010E9411034C0172
S11303E0F32DF0683F2E820133FC1BC0822D90E078
S11303F088169906B0F4B60180E290E00E942703C3
S11304002A94F4CFF50137FC859137FE81915F0181
S1130410B60190E00E94270321102A9421E0821A59
S113042091088114910471F7E8C0843611F089367B
S113043041F5F80137FE07C06081718182819381A3
S11304400C5F1F4F08C060817181072E000C880B60
S1130450990B0E5F1F4FF32DFF763F2E97FF09C0B8
S113046090958095709561957F4F8F4F9F4FF06861
S11304703F2E2AE030E0A3010E946303882E8618F1
S113048045C0853731F4232D2F7EB22E2AE030E08B
S113049025C0932D997FB92E8F36C1F018F4883575
S11304A079F0B5C0803719F0883721F0B0C0E92F52
S11304B0E061BE2EB4FE0DC0FB2DF460BF2E09C05A
S11304C034FE0AC0292F2660B22E06C028E030E090
S11304D005C020E130E002C020E132E0F801B7FEBF
S11304E007C060817181828193810C5F1F4F06C0B8
S11304F06081718180E090E00E5F1F4FA3010E9434
S11305006303882E8618FB2DFF773F2E36FE0DC021
S1130510232D2E7FA22E891458F434FE0BC032FCF6
S113052009C0832D8E7EA82E05C0B82CA32C03C031
S1130530B82C01C0B92CA4FE0FC0FE01E80DF11DBA
S11305408081803321F49A2D997EA92E09C0A2FEC0
S113055006C0B394B39404C08A2D867809F0B3948A
S1130560A3FC11C0A0FE06C0B21488F4280C922C7F
S11305709B180EC0B21460F4B60180E290E00E94B1
S11305802703B394F7CFB21418F42B1802C0982C95
S1130590212CA4FE10C0B60180E390E00E94270342
S11305A0A2FE17C0A1FC03C088E790E002C088E562
S11305B090E0B6010CC08A2D867859F0A1FE02C0E5
S11305C08BE201C080E2A7FC8DE2B60190E00E94BC
S11305D02703891438F4B60180E390E00E942703CE
S11305E09A94F7CF8A94F301E80DF11D8081B60146
S11305F090E00E9427038110F5CF222009F442CE17
S1130600B60180E290E00E9427032A94F6CFF60117
S11306108681978102C08FEF9FEF2B96E2E10C94C5
S1130620DD03FC010590615070400110D8F78095FE
S113063090958E0F9F1F0895FC01615070400190AA
S11306400110D8F7809590958E0F9F1F08950F93F2
S11306501F93CF93DF93FB01238121FD03C08FEF11
S11306609FEF2CC022FF16C046815781248135811B
S11306704217530744F4A081B1819D012F5F3F4F7E
S1130680318320838C93268137812F5F3F4F3783BB
S1130690268314C08B01EC01FB010084F185E02D5D
S11306A00995892BE1F6D80116968D919C9117979F
S11306B0019617969C938E931697CE01DF91CF9156
S11306C01F910F910895FA01AA27283051F1203182
S11306D081F1E8946F936E7F6E5F7F4F8F4F9F4FD2
S11306E0AF4FB1E03ED0B4E03CD0670F781F891F14
S11306F09A1FA11D680F791F8A1F911DA11D6A0FE2
S1130700711D811D911DA11D20D009F468943F9194
S11307102AE0269F11243019305D3193DEF6CF0193
S11307200895462F4770405D4193B3E00FD0C9F759
S1130730F6CF462F4F70405D4A3318F0495D31FDC6
S11307404052419302D0A9F7EACFB4E0A695979519
S1130750879577956795BA95C9F7009761057105EF
S113076008959B01AC010A2E069457954795379539
S11307702795BA95C9F7620F731F841F951FA01D93
S113078008952F923F924F925F926F927F928F9231
S11307909F92AF92BF92CF92DF92EF92FF920F930C
S11307A01F93CF93DF93CDB7DEB7CA1BDB0B0FB616
S11307B0F894DEBF0FBECDBF09942A8839884888D3
S11307C05F846E847D848C849B84AA84B984C88469
S11307D0DF80EE80FD800C811B81AA81B981CE0F60
S11307E0D11D0FB6F894DEBF0FBECDBFED01089545
S10707F0F894FFCFA7
S11307F4000000010000000000006500000000008B
S113080400020000000053000000000041444320A3
S11108146F75747075742069732025640A0072
S9030000FC
